:1000000000300020E5070000650800006B080000D4
:1000100000000000000000000000000000000000E0
:100020000000000000000000000000007108000057
:100030000000000000000000770800007D080000BC
:100040008908000097080000A5080000B308000018
:10005000C1080000CF080000DD080000EB08000028
:10006000F908000007090000150900002309000035
:10007000310900003F0900004D0900005B09000044
:100080006909000077090000850900009309000054
:10009000A1090000AF090000BD090000CB09000064
:1000A000D9090000E7090000F5090000030A000073
:1000B000110A00001F0A00002D0A00003B0A000080
:1004100010B5064C2378002B07D1054B002B02D0DA
:10042000044800E000BF0123237010BD30F0FF1F1F
:1004300000000000E0070000044B10B5002B03D0C3
:100440000349044800E000BF10BDC04600000000A2
:1004500034F0FF1FE007000080B582B000AF786085
:1004600003E0C0467B68013B7B607B68002BF8D1D2
:10047000C046C046BD4602B080BD000090B58DB0FC
:1004800000AF3B001A4A13CA13C313CA13C313CADB
:1004900013C312681A600023BB620023FB6200F0E2
:1004A0002DF8BB6A0A21180000F064F90B001A004D
:1004B000104B9200D258FB6AD318FB62BB6A0A2128
:1004C000180000F057F90B001A000A4B9200B96AA5
:1004D000D150022000F04CF8074B1800FFF7BCFF8A
:1004E000032000F045F8044B1800FFF7B5FFD8E7EC
:1004F0009807000000F0FF1F40420F0080B500AFDA
:10050000154A164BD3581449A02252011343134ADB
:100510008B50134B802252009A64114B8022520060
:10052000DA64104B802252005A600F4B5A690E4B0E
:100530008021C9020A435A610B4B5A690A4B802138
:1005400009030A435A61094B5A69084B02210A43BD
:100550005A61C046BD4680BD00700440381000009E
:1005600000A0044000C0044040F00F40C0F00F4025
:1005700080B582B000AF0200FB1D1A70FB1D1B7816
:10058000072B64D89A00354BD3181B689F46344B11
:100590008022D2025A60324B802212035A60314BC1
:1005A00002225A6056E02E4B8022D2029A602C4BD7
:1005B000802212039A602B4B02229A604AE0284B59
:1005C0008022D2029A60264B802212035A60254B69
:1005D00002225A603EE0224B8022D2025A60204B17
:1005E000802212039A601F4B02225A6032E01C4B99
:1005F0008022D2025A601A4B802212035A60194B91
:1006000002229A6026E0164B8022D2029A60144B96
:10061000802212039A60134B02225A601AE0104B98
:100620008022D2025A600E4B802212039A600D4B38
:1006300002229A600EE00A4B8022D2029A60084B96
:10064000802212035A60074B02229A6002E00123C3
:100650005B42FFE71800BD4602B080BDC007000046
:1006600040F00F40C0F00F40002243088B4274D38B
:1006700003098B425FD3030A8B4244D3030B8B42A3
:1006800028D3030C8B420DD3FF22090212BA030CAC
:100690008B4202D31212090265D0030B8B4219D38D
:1006A00000E0090AC30B8B4201D3CB03C01A5241AD
:1006B000830B8B4201D38B03C01A5241430B8B42F5
:1006C00001D34B03C01A5241030B8B4201D30B03DE
:1006D000C01A5241C30A8B4201D3CB02C01A524105
:1006E000830A8B4201D38B02C01A5241430A8B42C8
:1006F00001D34B02C01A5241030A8B4201D30B02B1
:10070000C01A5241CDD2C3098B4201D3CB01C01ACA
:10071000524183098B4201D38B01C01A52414309D4
:100720008B4201D34B01C01A524103098B4201D3C2
:100730000B01C01A5241C3088B4201D3CB00C01A2F
:10074000524183088B4201D38B00C01A52414308A7
:100750008B4201D34B00C01A5241411A00D20146CC
:10076000524110467047FFE701B5002000F006F83F
:1007700002BDC0460029F7D076E770477047C046F3
:10078000F8B5C046F8BC08BC9E467047F8B5C046F0
:10079000F8BC08BC9E467047000000000100000045
:1007A000020000000300000004000000050000003B
:1007B000060000000700000008000000090000001B
:1007C0008E050000A6050000BE050000D60500004D
:1007D000EE050000060600001E06000036060000BA
:0407E0000000000015
:1007E40080B584B000AF72B6154B00221A60154B69
:1007F400FB60154BBB6009E0FB681A68BB681A60B4
:10080400BB680433BB60FB680433FB60BA680F4BFE
:100814009A42F1D30E4B7B6005E07B6800221A609C
:100824007B6804337B607A680A4B9A42F5D30A4B9F
:100834003B600A4A3B681A6062B6FFF71DFEFEE79A
:1008440000810440480A000000F0FF1F30F0FF1F41
:1008540030F0FF1F4CF0FF1F08ED00E00000000027
:1008640080B500AFFEE780B500AFFEE780B500AF0E
:10087400FEE780B500AFFEE780B500AFFEE780B5C8
:1008840000AFFEE780B500AFFFF7F9FFC046BD46F5
:1008940080BD80B500AFFFF7F2FFC046BD4680BD06
:1008A40080B500AFFFF7EBFFC046BD4680BD80B505
:1008B40000AFFFF7E4FFC046BD4680BD80B500AF82
:1008C400FFF7DDFFC046BD4680BD80B500AFFFF732
:1008D400D6FFC046BD4680BD80B500AFFFF7CFFF51
:1008E400C046BD4680BD80B500AFFFF7C8FFC04617
:1008F400BD4680BD80B500AFFFF7C1FFC046BD4611
:1009040080BD80B500AFFFF7BAFFC046BD4680BDCD
:1009140080B500AFFFF7B3FFC046BD4680BD80B5CC
:1009240000AFFFF7ACFFC046BD4680BD80B500AF49
:10093400FFF7A5FFC046BD4680BD80B500AFFFF7F9
:100944009EFFC046BD4680BD80B500AFFFF797FF50
:10095400C046BD4680BD80B500AFFFF790FFC046DE
:10096400BD4680BD80B500AFFFF789FFC046BD46D8
:1009740080BD80B500AFFFF782FFC046BD4680BD95
:1009840080B500AFFFF77BFFC046BD4680BD80B594
:1009940000AFFFF774FFC046BD4680BD80B500AF11
:1009A400FFF76DFFC046BD4680BD80B500AFFFF7C1
:1009B40066FFC046BD4680BD80B500AFFFF75FFF50
:1009C400C046BD4680BD80B500AFFFF758FFC046A6
:1009D400BD4680BD80B500AFFFF751FFC046BD46A0
:1009E40080BD80B500AFFFF74AFFC046BD4680BD5D
:1009F40080B500AFFFF743FFC046BD4680BD80B55C
:100A040000AFFFF73CFFC046BD4680BD80B500AFD8
:100A1400FFF735FFC046BD4680BD80B500AFFFF788
:100A24002EFFC046BD4680BD80B500AFFFF727FF4F
:100A3400C046BD4680BD80B500AFFFF720FFC0466D
:040A4400BD4680BD6E
:100A48000A0000000B0000000C0000000D00000070
:100A58000E0000000F000000100000001100000050
:100A68001200000013000000390400001104000007
:04000003000007E50D
:00000001FF
